:100000000C945D000C9485000C9485000C94850084
:100010000C9485000C9485000C9485000C9485004C
:100020000C9485000C9485000C9485000C9442017E
:100030000C9485000C9485000C9485000C9485002C
:100040000C94F8000C9485000C9485000C948500A9
:100050000C9485000C9485000C9485000C9485000C
:100060000C9485000C94850000000008000201003B
:100070000003040700000000000000000000000072
:10008000250028002B0000000000240027002A0083
:10009000040404040404040402020202020203032E
:1000A0000303030301020408102040800102040836
:1000B00010200102040810207C0311241FBECFEF82
:1000C000D8E0DEBFCDBF11E0A0E0B1E0E2E6FBE0AA
:1000D00002C005900D92A030B107D9F721E0A0E051
:1000E000B1E001C01D92A233B207E1F710E0CDE507
:1000F000D0E004C02197FE010E94A905CC35D107AC
:10010000C9F70E94FE010C94AF050C94000090E02A
:10011000FC01E859FF4F2491FC01EC55FF4F34914D
:10012000FC01E057FF4FE491EE23C9F0222339F0A0
:10013000233001F1A8F4213019F1223029F1F0E047
:10014000EE0FFF1FE458FF4FA591B4918FB7F894BD
:10015000EC91611126C030953E233C938FBF0895EA
:100160002730A9F02830C9F0243049F78091800069
:100170008F7D03C0809180008F7780938000DFCFD8
:1001800084B58F7784BDDBCF84B58F7DFBCF809125
:10019000B0008F778093B000D2CF8091B0008F7D78
:1001A000F9CF3E2BDACF3FB7F894809107019091B9
:1001B0000801A0910901B0910A0126B5A89B05C0CC
:1001C0002F3F19F00196A11DB11D3FBFBA2FA92FD6
:1001D000982F8827BC01CD01620F711D811D911DD3
:1001E00042E0660F771F881F991F4A95D1F708953F
:1001F0001F920F920FB60F9211242F933F938F935C
:100200009F93AF93BF938091030190910401A091BC
:100210000501B09106013091020123E0230F2D3733
:1002200058F50196A11DB11D209302018093030191
:1002300090930401A0930501B093060180910701FA
:1002400090910801A0910901B0910A010196A11DA8
:10025000B11D8093070190930801A0930901B09309
:100260000A01BF91AF919F918F913F912F910F9074
:100270000FBE0F901F90189526E8230F0296A11D20
:10028000B11DD2CF1F920F920FB60F9211242F9350
:100290003F934F935F936F937F938F939F93AF930E
:1002A000BF93CF93DF93EF93FF9380910101C091B0
:1002B0000001D0E087FF24C01092850010928400D6
:1002C000809101018F5F8093010180910101082ECF
:1002D000000C990B8C179D0724F4809101018C3040
:1002E000C4F18091840090918500049680349C49EB
:1002F00008F47AC08091840090918500049676C0BD
:1003000080910101082E000C990B8C179D07C4F6F3
:10031000E09101018E2FEE0F990BFC01EE0FFF1FF4
:10032000E80FF91FE55FFE4F808186FFC9CFE0919E
:1003300001018E2FEE0F990BFC01EE0FFF1FE80F4E
:10034000F91FE55FFE4F808160E08F730E94870098
:10035000B7CF2091840030918500E09101018E2F6C
:10036000EE0F990BFC01EE0FFF1FE80FF91FE55F81
:10037000FE4F81819281820F931F90938900809319
:100380008800E09101018E2FEE0F990BFC01EE0F1A
:10039000FF1FE80FF91FE55FFE4F808186FF11C048
:1003A000E09101018E2FEE0F990BFC01EE0FFF1F64
:1003B000E80FF91FE55FFE4F808161E08F730E94B7
:1003C0008700FF91EF91DF91CF91BF91AF919F9106
:1003D0008F917F916F915F914F913F912F910F90EE
:1003E0000FBE0F901F90189580E49CE990938900B0
:1003F000809388008FEF80930101E3CF789484B5D8
:10040000826084BD84B5816084BD85B5826085BD10
:1004100085B5816085BD80916E00816080936E009E
:100420001092810080918100826080938100809190
:100430008100816080938100809180008160809341
:1004400080008091B10084608093B1008091B00001
:1004500081608093B00080917A00846080937A00FC
:1004600080917A00826080937A0080917A00816026
:1004700080937A0080917A00806880937A0010924D
:10048000C10080912F018C3008F068C0E9EAF0E0EB
:100490002491E5E9F0E08491882399F090E0880FB9
:1004A000991FFC01EA57FF4FA591B491FC01E45854
:1004B000FF4F859194918FB7F894EC91E22BEC93D8
:1004C0008FBF80912F01282F30E0F901EE0FFF1F21
:1004D000E20FF31FE55FFE4F9081907C9560908363
:1004E00010923001109231012CE0622F0E949D0584
:1004F000829FB001112430E020E0AB01420F531F76
:10050000FA01EE0FFF1FE40FF51FE55FFE4F90812C
:1005100096FD16C02F5F3F4F2C30310571F78111CA
:100520000FC01092800082E08093810010928500BD
:1005300010928400B19A80916F00826080936F0066
:10054000E0912F018E2F90E0FC01EE0FFF1FE80FCE
:10055000F91FE55FFE4F80818064808308E810E02A
:10056000C8E5D2E0A4EB4A2E512C612C712CB0E0EE
:100570002B2EB0E03B2E20E420937C0080917A006B
:10058000806480937A0080917A0086FDFCCF809110
:10059000780060917900762F682F072E000C880B69
:1005A000990B0E94A40420E030E044E353E40E944D
:1005B000300520E030EC4FE754E40E94FA030E943B
:1005C0006C049B01603242E07407BCF5209130015D
:1005D0006801C21AD10827FDD394CC0CDD1CCC0CC9
:1005E000DD1C0D2C000CEE08FF0820913101AE013E
:1005F000421B510927FD53959A01220F331F220FE9
:10060000331F032E000C440B550B2C193D094E09CA
:100610005F09DB01653B710514F0A4EBB0E0B7FFA7
:1006200002C0B0E0A0E00E94C103A30192010E94B9
:1006300097032C0D3D1D4E1D5F1DE0912F01EC30E9
:1006400080F580913001A801481B510987FD539521
:10065000CA01880F991F880F991F2817390784F03E
:1006600080913101AE01481B510987FD5395CA01A4
:10067000880F991F880F991F281739070CF4C90193
:100680000297880F991F4FB7F8942E2F30E0F90189
:10069000EE0FFF1FE20FF31FE55FFE4F9283818392
:1006A0004FBF0E94D3004B015C0184E6C82ED12CC1
:1006B000E12CF12C0E94D300681979098A099B0961
:1006C000683E734081059105A8F351E0C51AD10831
:1006D000E108F10888EE880E83E0981EA11CB11C89
:1006E000C114D104E104F10429F72114310409F4FF
:1006F00042CF0E9400003FCF809100018C3098F4DF
:1007000091E0980F9093000180932F0190E0FC01FD
:10071000EE0FFF1FE80FF91FE55FFE4F88EB9BE030
:100720009283818308958FEF80932F010895052E82
:1007300097FB1EF400940E94AE0357FD07D00E9461
:10074000C90307FC03D04EF40C94AE0350954095BA
:10075000309521953F4F4F4F5F4F0895909580956D
:10076000709561957F4F8F4F9F4F08950E94EB03C7
:10077000A59F900DB49F900DA49F800D911D1124F5
:100780000895B7FF0C94B6030E94B603821B930B27
:100790000895A1E21A2EAA1BBB1BFD010DC0AA1FC2
:1007A000BB1FEE1FFF1FA217B307E407F50720F0DA
:1007B000A21BB30BE40BF50B661F771F881F991F55
:1007C0001A9469F760957095809590959B01AC019E
:1007D000BD01CF010895A29FB001B39FC001A39FA7
:1007E000700D811D1124911DB29F700D811D11246A
:1007F000911D08950E940E040C94F6040E94EF04CB
:1008000058F00E94E80440F029F45F3F29F00C946E
:10081000DF0451110C942A050C94E5040E9407058D
:1008200068F39923B1F3552391F3951B550BBB271F
:10083000AA2762177307840738F09F5F5F4F220F64
:10084000331F441FAA1FA9F335D00E2E3AF0E0E85B
:1008500032D091505040E695001CCAF72BD0FE2FA5
:1008600029D0660F771F881FBB1F26173707480739
:10087000AB07B0E809F0BB0B802DBF01FF279358F1
:100880005F4F3AF09E3F510578F00C94DF040C94D2
:100890002A055F3FE4F3983ED4F3869577956795F4
:1008A000B795F7959F5FC9F7880F911D9695879526
:1008B00097F90895E1E0660F771F881FBB1F621745
:1008C00073078407BA0720F0621B730B840BBA0B03
:1008D000EE1F88F7E09508950E9473046894B111A3
:1008E0000C942A0508950E940F0588F09F5798F0F0
:1008F000B92F9927B751B0F0E1F0660F771F881F25
:10090000991F1AF0BA95C9F714C0B13091F00E943E
:100910002905B1E008950C942905672F782F8827C1
:10092000B85F39F0B93FCCF3869577956795B39565
:10093000D9F73EF490958095709561957F4F8F4FD4
:100940009F4F0895E89409C097FB3EF490958095D9
:10095000709561957F4F8F4F9F4F9923A9F0F92F85
:1009600096E9BB279395F695879577956795B79503
:10097000F111F8CFFAF4BB0F11F460FF1BC06F5FE9
:100980007F4F8F4F9F4F16C0882311F096E911C0FB
:10099000772321F09EE8872F762F05C0662371F01C
:1009A00096E8862F70E060E02AF09A95660F771F30
:1009B000881FDAF7880F9695879597F9089597F924
:1009C0009F6780E870E060E008959FEF80EC0895F5
:1009D00000240A941616170618060906089500241E
:1009E0000A9412161306140605060895092E039498
:1009F000000C11F4882352F0BB0F40F4BF2B11F40C
:100A000060FF04C06F5F7F4F8F4F9F4F089557FD6A
:100A10009058440F551F59F05F3F71F04795880F6C
:100A200097FB991F61F09F3F79F087950895121603
:100A300013061406551FF2CF4695F1DF08C01616AF
:100A400017061806991FF1CF869571056105089460
:100A50000895E894BB2766277727CB0197F9089577
:100A60000E9443050C94F6040E94E80438F00E94AA
:100A7000EF0420F0952311F00C94DF040C94E504AE
:100A800011240C942A050E94070570F3959FC1F369
:100A9000950F50E0551F629FF001729FBB27F00D2C
:100AA000B11D639FAA27F00DB11DAA1F649F662781
:100AB000B00DA11D661F829F2227B00DA11D621FD0
:100AC000739FB00DA11D621F839FA00D611D221F8A
:100AD000749F3327A00D611D231F849F600D211D6E
:100AE000822F762F6A2F11249F5750409AF0F1F0F1
:100AF00088234AF0EE0FFF1FBB1F661F771F881F5A
:100B000091505040A9F79E3F510580F00C94DF04AE
:100B10000C942A055F3FE4F3983ED4F386957795CD
:100B20006795B795F795E7959F5FC1F7FE2B880FFF
:100B3000911D9695879597F90895991B79E004C0C2
:100B4000991F961708F0961B881F7A95C9F780950C
:100B50000895EE0FFF1F0590F491E02D0994F8948D
:020B6000FFCFC5
:00000001FF
