:020000040000FA
:100000000C945E000C9486000C9486000C94860080
:100010000C9486000C9486000C9486000C94860048
:100020000C9486000C9486000C9486000C94860038
:100030000C9486000C9486000C9486000C94860028
:100040000C9467020C9486000C94D7020C94B102B5
:100050000C9486000C9486000C9486000C94860008
:100060000C9486000C948600000000080002010039
:100070000003040700000000000000000000000072
:10008000250028002B0000000000240027002A0083
:10009000040404040404040402020202020203032E
:1000A0000303030301020408102040800102040836
:1000B00010200102040810200903E50411241FBECA
:1000C000CFEFD8E0DEBFCDBF21E0A2E3B1E001C0B9
:1000D0001D92A23EB207E1F711E0A0E0B1E0E6E632
:1000E000FEE002C005900D92A233B107D9F710E0EF
:1000F000CDE5D0E004C02197FE010E942505CC3556
:10010000D107C9F70E947F030C9426070C940000C6
:100110000895AF92BF92CF92DF92EF92FF920F932A
:100120001F93CF93DF936C017B018B01040F151F8D
:10013000EB015E01AE18BF08C017D10759F06991F5
:10014000D601ED91FC910190F081E02DC601099559
:10015000892B79F7C501DF91CF911F910F91FF9006
:10016000EF90DF90CF90BF90AF900895FC01538D3A
:10017000448D252F30E0842F90E0821B930B541781
:1001800010F0CF96089501970895FC01918D828D0E
:10019000981761F0A28DAE0FBF2FB11D5D968C91A7
:1001A000928D9F5F9F73928F90E008958FEF9FEFE6
:1001B00008952FB7F8948091370190913801A0915C
:1001C0003901B0913A012FBF8093430190934401CC
:1001D000A0934501B09346018BE391E00E94C500D6
:1001E00097FF26C02FB7F89480913701909138017E
:1001F000A0913901B0913A012FBF40914301509134
:1002000044016091450170914601841B950BA60B3A
:10021000B70B40913F0150914001609141017091B5
:10022000420184179507A607B707B0F28FEF9FEF3B
:100230000895FC01918D828D981731F0828DE80F21
:10024000F11D858D90E008958FEF9FEF0895FC01DB
:10025000918D228D892F90E0805C9F4F821B9109A8
:100260008F73992708958BE391E00E94270121E085
:10027000892B09F420E0822F089580E090E0892BFB
:1002800029F00E94330181110C9400000895FC01B3
:10029000A48DA80FB92FB11DA35ABF4F2C91848DE7
:1002A00090E001968F739927848FA689B7892C9344
:1002B000A089B1898C91837080648C93938D848D97
:1002C000981306C00288F389E02D80818F7D80839A
:1002D0000895EF92FF920F931F93CF93DF93EC015A
:1002E00081E0888F9B8D8C8D98131AC0E889F989DD
:1002F000808185FF15C09FB7F894EE89FF896083E0
:10030000E889F98980818370806480839FBF81E060
:1003100090E0DF91CF911F910F91FF90EF900895A2
:10032000F62E0B8D10E00F5F1F4F0F731127E02E7D
:100330008C8D8E110CC00FB607FCFACFE889F989B5
:10034000808185FFF5CFCE010E944701F1CFEB8D73
:10035000EC0FFD2FF11DE35AFF4FF0829FB7F89489
:100360000B8FEA89FB8980818062CFCFCF93DF93A7
:10037000EC01888D8823B9F0AA89BB89E889F989BD
:100380008C9185FD03C0808186FD0DC00FB607FCF2
:10039000F7CF8C9185FFF2CF808185FFEDCFCE0125
:1003A0000E944701E9CFDF91CF91089590E0FC01D1
:1003B000E859FF4F2491FC01EC55FF4F3491FC01AB
:1003C000E057FF4FE491EE23C9F0222339F02330A8
:1003D00001F1A8F4213019F1223029F1F0E0EE0FFB
:1003E000FF1FE458FF4FA591B4918FB7F894EC919B
:1003F000611126C030953E233C938FBF089527306E
:10040000A9F02830C9F0243049F7809180008F7D11
:1004100003C0809180008F7780938000DFCF84B508
:100420008F7784BDDBCF84B58F7DFBCF8091B0000B
:100430008F778093B000D2CF8091B0008F7DF9CFBD
:100440003E2BDACFCF93DF93FC0101900020E9F738
:100450003197AF01481B590BBC018BE391E00E941F
:100460008900EC0142E050E068E171E08BE391E04B
:100470000E9489008C0F9D1FDF91CF9108950F93EB
:100480001F93CF93DF93EC0188819981009759F0F6
:100490002A813B812617370730F081E0DF91CF9129
:1004A0001F910F9108958B016F5F7F4F0E9450063F
:1004B000009759F0998388831B830A832C813D819F
:1004C000232B59F7FC011082E8CF80E0E7CF1F9281
:1004D0000F920FB60F9211242F933F938F939F93F8
:1004E000AF93BF938091370190913801A09139016A
:1004F000B0913A013091360123E0230F2D3758F5A2
:100500000196A11DB11D2093360180933701909370
:100510003801A0933901B0933A0180913201909152
:100520003301A0913401B09135010196A11DB11D97
:100530008093320190933301A0933401B09335013D
:10054000BF91AF919F918F913F912F910F900FBECF
:100550000F901F90189526E8230F0296A11DB11D3C
:10056000D2CF1F920F920FB60F9211242F933F9369
:100570004F935F936F937F938F939F93AF93BF93AB
:10058000EF93FF938BE391E00E944701FF91EF917E
:10059000BF91AF919F918F917F916F915F914F919B
:1005A0003F912F910F900FBE0F901F9018951F92A3
:1005B0000F920FB60F9211242F938F939F93EF9367
:1005C000FF93E0914B01F0914C018081E09151014A
:1005D000F091520182FD1BC09081809154018F5F88
:1005E0008F7320915501821741F0E0915401F0E0A2
:1005F000E55CFE4F958F80935401FF91EF919F91A1
:100600008F912F910F900FBE0F901F9018958081A2
:10061000F4CF10923E0110923D0188EE93E0A0E0ED
:10062000B0E080933F0190934001A0934101B093CB
:1006300042018AE091E090933C0180933B0185EC7C
:1006400090E0909348018093470184EC90E0909370
:100650004A018093490180EC90E090934C01809393
:100660004B0181EC90E090934E0180934D0182EC20
:1006700090E09093500180934F0186EC90E090932E
:100680005201809351011092540110925501109221
:100690005601109257011092D9011092D801109270
:1006A000DB011092DA011092DD011092DC0170E0A2
:1006B00060E088ED91E00E943F022091D8013091E6
:1006C000D901811113C02115310519F0C9010E940A
:1006D000C7051092D9011092D8011092DD01109235
:1006E000DC011092DB011092DA0108951092DD0115
:1006F0001092DC016AE171E0C9010C941F07CF93ED
:10070000DF93CDB7DEB728970FB6F894DEBF0FBEE4
:10071000CDBF789484B5826084BD84B5816084BD8A
:1007200085B5826085BD85B5816085BD80916E008F
:10073000816080936E0010928100809181008260C0
:1007400080938100809181008160809381008091FD
:1007500080008160809380008091B10084608093EC
:10076000B1008091B00081608093B00080917A00E8
:10077000846080937A0080917A00826080937A000E
:1007800080917A00816080937A0080917A008068FD
:1007900080937A001092C100E7EAF0E02491E3E947
:1007A000F0E08491882399F090E0880F991FFC0174
:1007B000EA57FF4FA591B491FC01E458FF4F859192
:1007C00094918FB7F894EC91E22BEC938FBFE0916A
:1007D0004B01F0914C0182E08083E0914701F09160
:1007E00048011082E0914901F0914A018FEC808329
:1007F00010925301E0914F01F091500186E0808307
:10080000E0914D01F0914E01808180618083E09103
:100810004D01F0914E01808188608083E0914D010F
:10082000F0914E01808180688083E0914D01F091CC
:100830004E0180818F7D808380E0E82E80E0F82E5D
:100840008BE191E00E9422028BE391E00E9427015C
:10085000892BD1F31A8219821C821B821E821D826F
:1008600070E060E0CE0101960E943F0229813A814A
:1008700081112BC02115310519F0C9010E94C7054E
:100880001A8219821E821D821C821B820E94D9003C
:1008900097FD23C08F8318860D811E810F5F1F4F28
:1008A000B801CE0101960E943F02882379F3298185
:1008B0003A818D819E81BE01695F7F4F820F931FB8
:1008C0000E941F071E830D83E1CF1E821D826AE1F5
:1008D00071E0C9010E941F07D9CF8091D801909182
:1008E000D901009709F45AC069817A8161157105AF
:1008F00009F452C04091DA015091DB012D813E8113
:100900004217530708F448C00E941F078D819E813B
:100910009093DD018093DC011E821D8289819A8182
:10092000009711F00E94C7058091DC019091DD01D4
:10093000892B71F06BE271E08091D8019091D9011F
:100940000E941607892B21F461E083E00E94D60102
:100950008091DC019091DD01892B71F06EE271E0F4
:100960008091D8019091D9010E941607892B21F41A
:1009700060E083E00E94D60189E191E00E942202BA
:10098000E114F10409F45CCF0E943301882309F4D7
:1009900057CF0E94000054CF0E94C70589819A81D9
:1009A0009093D9018093D8018B819C819093DB0136
:1009B0008093DA018D819E819093DD018093DC012B
:1009C0001A8219821C821B82A7CF8091D801909134
:1009D000D901009711F00C94C70508952F923F920A
:1009E0004F925F926F927F928F929F92AF92BF923F
:1009F000CF92DF92EF92FF920F931F93CF93DF93EB
:100A0000CDB7DEB7CA1BDB0B0FB6F894DEBF0FBE47
:100A1000CDBF09942A88398848885F846E847D8494
:100A20008C849B84AA84B984C884DF80EE80FD8096
:100A30000C811B81AA81B981CE0FD11D0FB6F8940C
:100A4000DEBF0FBECDBFED010895EE0FFF1F059075
:100A5000F491E02D09940F931F93CF93DF9382308D
:100A6000910510F482E090E0E091E001F091E10165
:100A700030E020E0B0E0A0E0309799F42115310596
:100A800009F44AC0281B390B24303105D8F58A8176
:100A90009B816115710589F1FB0193838283FE01BE
:100AA00011C0408151810281138148175907E0F03C
:100AB0004817590799F4109761F012960C93129702
:100AC00013961C933296CF01DF91CF911F910F9116
:100AD00008950093E0011093E101F4CF2115310551
:100AE00051F04217530738F0A901DB019A01BD010B
:100AF000DF01F801C1CFEF01F9CF9093E1018093BD
:100B0000E001CDCFFE01E20FF31F819391932250BC
:100B1000310939832883D7CF2091DE013091DF015D
:100B2000232B41F420910201309103013093DF0126
:100B30002093DE0120910001309101012115310542
:100B400041F42DB73EB74091040150910501241B9B
:100B5000350BE091DE01F091DF01E217F307A0F41D
:100B60002E1B3F0B2817390778F0AC014E5F5F4F03
:100B70002417350748F04E0F5F1F5093DF01409355
:100B8000DE01819391939FCFF0E0E0E09CCFCF9383
:100B9000DF930097E9F0FC01329713821282A09153
:100BA000E001B091E101ED0130E020E01097A1F407
:100BB00020813181820F931F2091DE013091DF016E
:100BC0002817390709F061C0F093DF01E093DE01D7
:100BD000DF91CF910895EA01CE17DF07E8F54A814A
:100BE0005B819E0141155105B1F7E901FB83EA8361
:100BF00049915991C40FD51FEC17FD0761F480810D
:100C000091810296840F951FE901998388838281DF
:100C100093819B838A83F0E0E0E012968D919C9112
:100C200013970097B9F52D913C911197CD0102963C
:100C3000820F931F2091DE013091DF0128173907C1
:100C400039F6309751F51092E1011092E001B0931E
:100C5000DF01A093DE01BCCFD383C28340815181E9
:100C6000840F951FC817D90761F44E5F5F4F8881C5
:100C70009981480F591F518340838A819B819383B7
:100C800082832115310509F0B0CFF093E101E093A3
:100C9000E0019ECFFD01DC01C0CF13821282D7CFCD
:100CA000B0E0A0E0E6E5F6E00C94F0048C010097DB
:100CB00051F4CB010E942B058C01C801CDB7DEB7E2
:100CC000E0E10C940C05FC01E60FF71F9C0122509B
:100CD0003109E217F30708F49DC0D901CD91DC91E9
:100CE0001197C617D70798F0C530D10530F3CE015C
:100CF00004978617970708F3C61BD70B2297C19353
:100D0000D1936D937C93CF010E94C705D6CF5B0131
:100D1000AC1ABD0A4C018C0E9D1EA091E001B09151
:100D2000E101512C412CF12CE12C109731F58091EF
:100D3000DE019091DF018815990509F05CC0461627
:100D4000570608F058C0809100019091010100976A
:100D500041F48DB79EB74091040150910501841B69
:100D6000950BE817F90708F055C0F093DF01E09301
:100D7000DE01F90171836083A0CF8D919C91119761
:100D800012966C90129713967C901397A815B9053C
:100D900059F56C0142E0C40ED11CCA14DB0420F1E9
:100DA000AC014A195B09DA011296159780F062824C
:100DB000738251834083D9016D937C93E114F104D4
:100DC00071F0D7011396FC93EE93129776CF22968B
:100DD0008C0F9D1FF90191838083F301EFCFF09376
:100DE000E101E093E00169CF4816590608F42C01AF
:100DF0007D01D3019ACFCB010E942B057C01009786
:100E000049F0AE01B8010E940D07C8010E94C70554
:100E1000870153CF10E000E050CFFB01DC0102C09E
:100E200001900D9241505040D8F70895FB01DC012C
:100E30008D91019080190110D9F3990B0895FB0150
:100E4000DC0101900D920020E1F7089510E0CDE55E
:100E5000D0E004C0FE010E9425052196CE35D107C1
:100E6000C9F7F894FFCF0000E20180000000000005
:100E700069018900B600B6012701C50019010D0AF4
:100E800000656E746572204F6E206F72204F66662B
:080E9000006F6E006F66660042
:107E0000112484B714BE81FFF0D085E080938100F7
:107E100082E08093C00088E18093C10086E0809377
:107E2000C20080E18093C4008EE0C9D0259A86E02C
:107E300020E33CEF91E0309385002093840096BBD3
:107E4000B09BFECF1D9AA8958150A9F7CC24DD24C4
:107E500088248394B5E0AB2EA1E19A2EF3E0BF2EE7
:107E6000A2D0813461F49FD0082FAFD0023811F036
:107E7000013811F484E001C083E08DD089C08234E0
:107E800011F484E103C0853419F485E0A6D080C0E4
:107E9000853579F488D0E82EFF2485D0082F10E0AE
:107EA000102F00270E291F29000F111F8ED06801E7
:107EB0006FC0863521F484E090D080E0DECF843638
:107EC00009F040C070D06FD0082F6DD080E0C81688
:107ED00080E7D80618F4F601B7BEE895C0E0D1E017
:107EE00062D089930C17E1F7F0E0CF16F0E7DF06D8
:107EF00018F0F601B7BEE89568D007B600FCFDCFD4
:107F0000A601A0E0B1E02C9130E011968C91119780
:107F100090E0982F8827822B932B1296FA010C0160
:107F200087BEE89511244E5F5F4FF1E0A038BF0790
:107F300051F7F601A7BEE89507B600FCFDCF97BE46
:107F4000E89526C08437B1F42ED02DD0F82E2BD052
:107F50003CD0F601EF2C8F010F5F1F4F84911BD097
:107F6000EA94F801C1F70894C11CD11CFA94CF0C13
:107F7000D11C0EC0853739F428D08EE10CD085E9AC
:107F80000AD08FE07ACF813511F488E018D01DD067
:107F900080E101D065CF982F8091C00085FFFCCF94
:107FA0009093C60008958091C00087FFFCCF809118
:107FB000C00084FD01C0A8958091C6000895E0E648
:107FC000F0E098E1908380830895EDDF803219F02E
:107FD00088E0F5DFFFCF84E1DECF1F93182FE3DFCA
:107FE0001150E9F7F2DF1F91089580E0E8DFEE27F6
:047FF000FF270994CA
:027FFE00040479
:00000001FF
